:10000E0000000000000000000000000000000000E2
:10001E00000000000000F8330000000000000000A7
:10002E00000010000C00020010000C000200000086
:10003E0000004004C03F78044004C03F7804000034
:10004E000000701888208820FCFF0821301E000058
:10005E00F0000831F00C8003601E1821001E000015
:10006E00001EF0210823882C701900270021001093
:10007E00000012000E000000000000000000000052
:10008E00000000000000E0071818042002400000E5
:10009E000000024004201818E007000000000000D5
:1000AE00400240028001F00F800140024002000039
:1000BE000000000100010001E00F0001000100013D
:1000CE000000009000700000000000000000000022
:1000DE00000000010001000100010001000100000C
:1000EE0000000030003000000000000000000000A2
:1000FE000000006000180007C00038000400000077
:10010E000000E00F1010082008201010E00F000073
:10011E000000000010201020F83F002000200000FA
:10012E00000070300828082408220821F030000052
:10013E00000030180820082108218822701C0000B9
:10014E0000000006800540243024F83F00240024DF
:10015E000000F8198820882088200811080E000059
:10016E000000E00F1011882088209020001F000052
:10017E00000018000800083E880168001800000002
:10018E000000701C8822082108218822701C0000A3
:10019E000000F0010812082208221011E00F0000E2
:1001AE00000000000000C030C03000000000000061
:1001BE0000000000000080E00000000000000000D1
:1001CE0000000001800240042008101008200000EA
:1001DE000000400240024002400240024002000085
:1001EE0000000820101020084004800200010000CA
:1001FE0000007000480008300837880070000000CA
:10020E00C0073018C8272828E82F1028E01700004C
:10021E000020003CC0233802E002002700380020F6
:10022E000820F83F8820882088207011000E0000DA
:10023E00C0073018082008200820081038080000D1
:10024E000820F83F0820082008201010E00F0000BA
:10025E000820F83F88208820E82308201018000086
:10026E000820F83F88208800E803080010000000EE
:10027E00C0073018082008200822381E000200008F
:10028E000820F83F0821000100010821F83F08204E
:10029E00000008200820F83F082008200000000079
:1002AE0000C0008008800880F87F08000800000069
:1002BE000820F83F8820C0012826183808200000A2
:1002CE000820F83F08200020002000200030000009
:1002DE000820F83FF801003EF801F83F0820000022
:1002EE000820F83F3020C00000070818F83F08002B
:1002FE00E00F10100820082008201010E00F00005A
:10030E000820F83F0821080108010801F00000004C
:10031E00E00F10100828082808301050E04F000099
:10032E000820F83F882088008803880C7030002051
:10033E00000070388820082108210822381C00008F
:10034E00180008000820F83F0820080018000000D8
:10035E000800F81F0820002000200820F81F0800C1
:10036E000800780088070038000EC8013800080021
:10037E000800F803003EF801003EF80308000000F4
:10038E0008201830682C80038003682C1830082051
:10039E0008003800C820003FC820380008000000C0
:1003AE001020083808260821C82038200818000018
:1003BE00000000000000FE7F0240024002400000EC
:1003CE00000004003800C0010006003800C0000024
:1003DE000000024002400240FE7F000000000000CC
:1003EE0000000000040002000200040000000000F3
:1003FE0000800080008000800080008000800080EF
:10040E0000000200020004000000000000000000D6
:10041E0000000019802480248012003F002000007C
:10042E001000F03F0011802080200011000E00000F
:10043E000000000E0011802080208020001100009E
:10044E000000001F8020802080209010F03F0020B0
:10045E000000001F802480248024802400170000C8
:10046E00000080208020E03F90209020200000009F
:10047E000000006B809480948094809380600000D4
:10048E001020F03F0021800080008020003F0020DF
:10049E00000080209820983F0020002000000000DF
:1004AE00000000C0008080809880987F00000000CF
:1004BE001020F03F002400068029803080200000AC
:1004CE00000010201020F83F002000200000000047
:1004DE008020803F80208000803F80208000003F71
:1004EE008020803F0021800080008020003F00207F
:1004FE000000001F8020802080208020001F000030
:10050E00808080FF0091802080200011000E00006E
:10051E000000000E001180208020009180FF0080DE
:10052E0080208020803F00218020800080010000FC
:10053E000000003380248024802480248019000051
:10054E00000080008000E01F80208020001000004E
:10055E008000801F0020002000208010803F00209F
:10056E0080008003800C0030800C8003800000002F
:10057E008001800E0030800C8007003880068001DC
:10058E00000080208031800E002E803180200000FF
:10059E0080008081808600780018800680018000AF
:1005AE00000080218030802C80228021803000004D
:1005BE0000000000000000000001FC3E024002406E
:1005CE000000000000000000FFFF0000000000001F
:1005DE0002400240FC3E000100000000000000004E
:1005EE0000000200010002000200040002000000F0
:1005FE00C6D540445464457E4444447E45645444C8
:10060E004000000000FF49494949494949FF00009F
:10061E000000D6D00000F010101010FF10101010B7
:10062E00F000000000000F04040404FF040404049E
:10063E000F000000BFC62424A4FEA3220022CC007B
:10064E0000FF00000000080601FF0001040404047E
:10065E0004FF02020200BCBC101010FF10900888AC
:10066E008888FF88888808000444827F0180804043
:10067E00432C102846818000D3D004040484E43C2B
:10068E002724242424E40404040004020100FF09A6
:10069E0009090949897F00000000CFDE00FE225AB9
:1006AE008600FE9292929292FE00000000FF0408D5
:1006BE000700FF4020030C1422414000B9AB00801C
:1006CE00402018068000071820408000000001001E
:1006DE002070282621202024386000010100CBBE86
:1006EE00001012929292929292121202FE0000004A
:1006FE000000003F101010103F0040807F000000EF
:1017D900E4FEEF30E704D2858002C285EF25E0FF01
:0817E900C286D2860EBE08EA9A
:0117F10022D5
:0818360012183EE51A2410FF10
:0A183E00C283C2841217D9D283229C
:0C182000F58375F002EC120F47E493FF13
:0A182C00C283D2841217D9D283229E
:1015B100D2827F0A7E001217BBC2827F0A7E00128E
:1015C10017BBD2827F0A7E001217BB7FE212183E40
:1015D1007FC812183E7FA012183E7F2F12183E7F3F
:1015E1002612183E7F8112183E7F1012183E7FAFDF
:0815F10012183E7F4002183E73
:10179300E4FD7F4012183EED24B0FF12183E7F1087
:1017A30012183EE4FF12183EE4FCE4FF12182C0C5E
:0717B300BC60F70DBD09DB6E
:0117BA00220C
:0214FC008B194A
:1014FE00EFD39460505FED9402505AED25E024B086
:10150E00FDEFC4540FF51AEF540FF51BAF0512186B
:10151E0036AF1B12183E74E02519F519E4FC75F070
:10152E0010E519A4240EF582E5F034001218200CF3
:10153E00BC08EBED04FF121836AF1B12183EE4FC8C
:10154E0075F010E519A4240FF582E5F03400121899
:05155E00200CBC08EBAD
:011563002265
:061641008F128D138B14C3
:10164700E4F518E518C395145035AB15AA16A91774
:10165700120D7DFBAD13AF121214FC74082512F5A1
:101667001274012517F517E43516F5160518AB158D
:0F167700FAA917120D7D6007E518C3940C40C443
:011686002241
:0416C7008F618D6240
:1016CB00E4756601F565F564F563AF621562EF606D
:1016DB001BAB66AA65A964A863AF61E4FCFDFE12AF
:1016EB000E2A8F668E658D648C6380DEAF66AE6569
:0416FB00AD64AC63CB
:0116FF0022C8
:041476008F578D58A7
:10147A00E4F560F55FE55FC3955D5075C3E55D957D
:10148A005F14FD7F0A1216C7A804A905AA06AB07AE
:10149A00AF5CAE5BAD5AAC59120EB5E47B0AFAF9F1
:1014AA00F8120EB5AF03AE07E560702FE55D14FFC5
:1014BA00E55FC39F5025EE701FE55EB4010DE55F41
:1014CA0075F008A42557FF7B30801DE55F75F0088D
:1014DA00A42557FF7B208010756001E55F75F00831
:1014EA00A42557FFEE2430FBAD581214FC055F808B
:0114FA00846D
:0114FB0022CE
:04131B008F1C8D1D79
:10131F00E51CD3946040030213E9E51D94054003D7
:10132F000213E9E51D25E0F51D24B0F51D120D7D15
:10133F0070030213E9E51CC4540FF51EE51C540F8E
:10134F00F51FAF1D12183EE51E2410FF12183EAFF9
:10135F001F12183EE4FD120D7DFF75F022EDA4243F
:10136F00FEF582E5F03405F583E4936F705C900031
:10137F0001120D96FF75F022EDA424FFF582E5F022
:10138F003405F583E4936F7041FCBC1014E51D0424
:10139F00FF12183EE51E2410FF12183EAF1F121841
:1013AF003E75F022EDA42400F582E5F03406F583B6
:1013BF00E5822CF582E43583F583E493FF12182C34
:1013CF000CBC20C67410251CF51C0DED641E708618
:0A13DF00740229F9E43AFA02133C03
:0113E90022E1
:100F5300E4F512F513F514D294D295D296D297D222
:100F630090D291D292D293C2972090137F14FE1203
:100F730017BB3090FD7F147E001217BB751204203F
:100F830091147F147E001217BB3091FD7F147E00F5
:100F93001217BB7512032092147F147E001217BB25
:100FA3003092FD7F147E001217BB7512022093143A
:100FB3007F147E001217BB3093FD7F147E0012173F
:100FC300BB751201D294D295D296D297D290D29178
:100FD300D292D293C2962090147F147E001217BB34
:100FE3003090FD7F147E001217BB751208209114F8
:100FF3007F147E001217BB3091FD7F147E00121701
:10100300BB7512072092147F147E001217BB309217
:10101300FD7F147E001217BB7512062093147F14F4
:101023007E001217BB3093FD7F147E001217BB7531
:101033001205D294D295D296D297D290D291D292CF
:10104300D293C2952090147F147E001217BB309068
:10105300FD7F147E001217BB75120C2091147F14B0
:101063007E001217BB3091FD7F147E001217BB75F3
:10107300120B2092147F147E001217BB3092FD7F57
:10108300147E001217BB75120A2093147F147E007E
:101093001217BB3093FD7F147E001217BB75120924
:1010A300D294D295D296D297D290D291D292D29311
:1010B300C2942090147F147E001217BB3090FD7FE2
:1010C300147E001217BB7512102091147F147E003A
:1010D3001217BB3091FD7F147E001217BB75120FE0
:1010E3002092147F147E001217BB3092FD7F147E72
:1010F300001217BB75120E2093147F147E00121773
:10110300BB3093FD7F147E001217BB75120DAF1217
:0111130022B9
:0A17F200EF1FAC0670011E4C600CE6
:0C17FC00007512021512E51260EC80F876
:0118080022BD
:04170000AB07AA0683
:101704007F647E007C007D32120DC3AD03AC0212F7
:101714000DD58E108F11900000C3E5829511E583DD
:101724009510500CB2A5AF03AE021217F2A380E9D4
:011734002292
:10168700750E00750F0220B0187F147E001217BB6D
:1016970030B0FD7F147E001217BBE4F50EF50F8006
:1016A7001A20B1177F147E001217BB30B1FD7F14CB
:0F16B7007E001217BB750E00750F01AE0EAF0F40
:0116C6002201
:101809005389F0438901758A18758CFCC28DD28C75
:07181900D2A9D2AFC2B9222F
:0B173500094E0C185E081C5A42524A74
:09185300D288D2A8D2AFD2B22291
:03000300021114D3
:10111400C0E0C0F0C083C082C0D075D000C000C0A1
:0D11240001C002C003C004C005C006C00722
:10113100750800750900750A00750B00750C003003
:10114100B20302122B750903750AE820B21EE50AE3
:10115100450960187F017E00121848E50A150A70DA
:10116100021509E50A450970E202122B20B20302B9
:101171001213750901750AF430B21EE50A450960BA
:10118100187F017E00121848E50A150A7002150938
:10119100E50A450970E202122B750B00750C00750A
:1011A1000902750A5820B21DE50A450960177F0139
:1011B1007E00121848E50A150A70021509E50A456C
:1011C1000970E28065750900750A1430B2127F0A50
:1011D1007E001218480508E508D3941440ED804AB2
:1011E100744A250BF8C000E6C313D000F6E508C326
:1011F10094084009744A250BF8E64480F675080006
:10120100050CE50CC394084096050BE50BC394044B
:10121100408AE54DF4654C6011750B00744A250B4D
:0A122100F87600050BE50BB404F2AB
:10122B00D007D006D005D004D003D002D001D00017
:0B123B00D0D0D082D083D0F0D0E032C1
:10176A00E4FFE4FEEF75F003A4244E2EF8E6B54C30
:10177A000DE4F54CEF75F003A42E2409FF220EBEEA
:08178A0003E20FBF03DC7F0046
:011792002234
:0B184800EF1FAC0670011E4C70F62272
:1017BB00D3EF9400EE940040147D6E7C00ED1D7011
:0D17CB00011CED4C70F7EF1F70E61E80E36F
:0117D80022EE
:10070E004D616E75616C3A20202020202020202023
:10071E00004D75736963313A207E7E2020202020A3
:10072E002020004175746F6D617469633A2020203A
:10073E002020202020004D75736963323A207E7E82
:10074E0020202020202020004D75736963333A202D
:10075E007E7E20202020202020004175746F6D6148
:10076E007469633A202020202020200057656C6396
:10077E006F6D6520746F004D7573696320626F78BD
:10078E00210053656C656374206D6F64653A20209B
:10079E00202020006B313A4175746F706C617900C6
:1007AE006B323A4D616E75616C0030303000000076
:1007BE0000000000646F2D00000000000000726554
:1007CE002D000000000000006D692D0000000000EB
:1007DE00000066612D00000000000000736F2D0008
:1007EE000000000000006C612D0000000000000001
:1007FE0073692D00000000000000646F20000000EF
:10080E0000000000646F2000000000000000726510
:10081E0020000000000000006D69200000000000B4
:10082E00000066612000000000000000736F2000D1
:10083E000000000000006C612000000000000000BD
:10084E0073692000000000000000646F2B000000A0
:10085E00000000000000F88CF8F3F95BF9B8FA1507
:10086E00FA67FAB9FB04FB4BFB90FBCFFC10FC467E
:10087E00FC79FCAEFCDCFD0AFD34FD5CFD82FDA6C0
:10088E00FDC8FDE8FE08FE23FE3DFE57FE6EFE850A
:10089E00FE9AFEAEFEC1FED3FEE4FEF4FF0400049B
:1008AE0000040004160218021906180219041D0489
:1008BE00180C110211021606140216041904140C57
:1008CE001104120611021204190411080002190271
:1008DE00190219021806130213041804180800044A
:1008EE00160218021906180219041D04180C11021A
:1008FE0011021606140216041906140C0F02110228
:10090E0012041902180419061B021B021D02190AF1
:10091E00190218021602160218041504160C1902F2
:10092E001B021D061B021D0420041B0C14021402C4
:10093E001906180219041D041D0C160218021904BA
:10094E0018041B021B021906140A1E041D041B04A4
:10095E0019041D0C1D042208200420041D021B0274
:10096E001908000219021B0419021B021B042004A1
:10097E001D0C1D04220820081D021B02190800026E
:10098E0019021B0419021B061804160C1602180273
:10099E00FF0D020F020A02080214061602110214BB
:1009AE000219021602140814041602140211020F80
:1009BE00021104140211020A020D020F080F021492
:1009CE000211020D020A0408020A020F0216021494
:1009DE0002160211060F020D020F010F0111021471
:1009EE0001140119021602140414020A020D020F58
:1009FE00021206160116011403160111020F020D42
:100A0E00080D0800041402140219081B0619021618
:100A1E0002190214021802160814041104190416FD
:100A2E00031601140216020D020F02110811041111
:100A3E000214021604160219021B041D0219021BCF
:100A4E000619021B0211021402160218021B011BC8
:100A5E00011602180214101B0218021602140211BB
:100A6E00021401140116021B021910FF0D010F01D1
:100A7E001102190214021B0314011D01140120029C
:100A8E00200219021D0219021E021D0219040D0177
:100A9E000F011102190214021B0314011D0114018E
:100AAE002002200219021D0219021E021D02190443
:010ABE00FF38
:10174000024701F4202223000000BE00AA009700F7
:101750008F007F00710064005F005F0055004B0048
:0917600047003F00380032002F61
:101564008E0E8F0F7515FF75160775170E7B0CE41D
:10157400FDFF121641E50F450E6031AE0EAF0F7C34
:10158400007D0A120DC374B82FF974073E7515FF58
:10159400F51689177B0C7D017F05121641E50F2591
:0D15A400E02423F8E6FE08E6FF12170022FF
:0F0ABF008E0E8F0FE50F6401450E6003020BBE14
:100ACE00F510C20030A003020BBEE50F6401450E07
:100ADE006003020BBE7515FF75160775171F7B0C8D
:100AEE007D01FF121641200043E5109008AC93FFE4
:100AFE00F460308F490510E548AE477802CEC31337
:100B0E00CE13D8F9FFE5109008AC93FD7C00120DC2
:100B1E00C31217BB0510C28C7F057E001217BBD205
:0C0B2E008C8009C28CE4F549F50EF50F2F
:100B3A00120F538F11E511B4050DB200300004C233
:100B4A008C8085D28C8081E511B40626C28CE4F5AE
:100B5A0049F50EF50F1217937515FF7516077517D8
:100B6A00317B0CE4FDFF1216417547017548F4020A
:100B7A000AD2E511B4070A749C2548F54874FF8027
:100B8A002CE511B4080974642548F548E4801EE58B
:100B9A0011B4090974642548F548E48010E5116424
:100BAA000A6003020AD274642548F548E43547F519
:010BBA0047F3
:030BBB00020AD259
:0B0BBE00E50F6402450E6003020C9D71
:100BC900F510C20030A003020C9DE50F6402450E2A
:100BD9006003020C9D7515FF7516077517447B0C8C
:100BE9007D01FF121641200043E51090099F93FFF4
:100BF900F460308F490510E548AE477802CEC3133B
:100C0900CE13D8F9FFE51090099F93FD7C00120DD2
:100C1900C31217BB0510C28C7F057E001217BBD209
:0C0C29008C8009C28CE4F549F50EF50F33
:100C3500120F538F11E511B4050DB200300004C237
:100C45008C8085D28C8081E511B40626C28CE4F5B2
:100C550049F50EF50F1217937515FF7516077517DC
:100C6500317B0CE4FDFF1216417547017548F4020E
:100C75000BCDE511B4070A749C2548F54874FF802F
:100C850010E51164086003020BCD74642548F5482E
:050C9500E43547F547BE
:030C9A00020BCD7D
:0B0C9D00E50F6403450E6003020D7CB0
:100CA800F510C20030A003020D7CE50F6403450E69
:100CB8006003020D7C7515FF7516077517567B0CBA
:100CC8007D01FF121641200043E510900A7A93FF38
:100CD800F460308F490510E548AE477802CEC3135B
:100CE800CE13D8F9FFE510900A7A93FD7C00120D17
:100CF800C31217BB0510C28C7F057E001217BBD22A
:0C0D08008C8009C28CE4F549F50EF50F53
:100D1400120F538F11E511B4050DB200300004C257
:100D24008C8085D28C8081E511B40626C28CE4F5D2
:100D340049F50EF50F1217937515FF7516077517FC
:100D4400687B0CE4FDFF1216417547017548F402F7
:100D54000CACE511B4070A749C2548F54874FF806F
:100D640010E51164086003020CAC74642548F5486E
:050D7400E43547F547DE
:030D7900020CACBD
:010D7C002254
:10124600750D021215B17F2C7E011217BB12179372
:101256007515FF75160775177A7B0CE4FDFF1216D8
:10126600417515FF7516077517857B0C7D01E4FF23
:101276001216417FC47E091217BB121853D2A1D28F
:10128600A01217937515FF7516077517907B0CE45A
:10129600FDFF1216417515FF7516077517A27B0C13
:1012A6007D01E4FF1216417515FF7516077517AE19
:1012B6007B0C7D02E4FF1216417FC47E091217BB28
:1012C6001216878F0DE50D7006C2A1D2A08009E522
:1012D6000DB40107D2A1C2A012179320A10F1217B5
:1012E6006A7545008F46AE4512156480D320A0D09E
:1012F6007515FF7516077517317B0CE4FDFF121681
:1013060041120F537521008F22121809AF22AE2108
:05131600120ABF80ABCC
:03000B000215F9E2
:1015F900C0E0C083C082C0D075D000C006E54925CF
:10160900E02462F582E43408F5837401937002E4FE
:1016190093601AE54925E02462F582E43408F583EC
:10162900E493FE740193F58AEEF58CB2A5D006D049
:08163900D0D082D083D0E03252
:030000000213EAFE
:0C13EA00787FE4F6D8FD758166021431AE
:100D7D00BB010689828A83E0225002E722BBFE0274
:090D8D00E32289828A83E49322A7
:100D9600BB010CE58229F582E5833AF583E0225012
:100DA60006E92582F8E622BBFE06E92582F8E2225C
:0D0DB600E58229F582E5833AF583E4932276
:100DC300EF8DF0A4A8F0CF8CF0A428CE8DF0A42E44
:020DD300FE22FE
:100DD500BC000BBE0029EF8DF084FFADF022E4CC02
:100DE500F875F008EF2FFFEE33FEEC33FCEE9DECCB
:100DF500984005FCEE9DFE0FD5F0E9E4CEFD22ED11
:100E0500F8F5F0EE8420D21CFEADF075F008EF2F5A
:100E1500FFED33FD4007985006D5F0F222C398FD4B
:050E25000FD5F0EA22E8
:100E2A00E88FF0A4CC8BF0A42CFCE98EF0A42CFC67
:100E3A008AF0EDA42CFCEA8EF0A4CDA8F08BF0A4E5
:100E4A002DCC3825F0FDE98FF0A42CCD35F0FCEB44
:100E5A008EF0A4FEA9F0EB8FF0A4CFC5F02ECD3909
:0F0E6A00FEE43CFCEAA42DCE35F0FDE43CFC2276
:100E790075F008758200EF2FFFEE33FECD33CDCC30
:100E890033CCC58233C5829BED9AEC99E5829840B3
:100E99000CF582EE9BFEED9AFDEC99FC0FD5F0D690
:100EA900E4CEFBE4CDFAE4CCF9A88222B800C1B9BA
:100EB9000059BA002DEC8BF084CFCECDFCE5F0CBF8
:100EC900F97818EF2FFFEE33FEED33FDEC33FCEB31
:100ED90033FB10D703994004EB99FB0FD8E5E4F9EC
:100EE900FA227818EF2FFFEE33FEED33FDEC33FCD9
:100EF900C933C910D7059BE99A4007EC9BFCE99ACD
:100F0900F90FD8E0E4C9FAE4CCFB2275F010EF2F11
:100F1900FFEE33FEED33FDCC33CCC833C810D70711
:100F29009BEC9AE899400AED9BFDEC9AFCE899F84C
:0E0F39000FD5F0DAE4CDFBE4CCFAE4C8F922DF
:0C0F4700A42582F582E5F03583F58322B5
:1013F600021246E493A3F8E493A34003F68001F2B5
:1014060008DFF48029E493A3F85407240CC8C333F7
:10141600C4540F4420C8834004F456800146F6DFC6
:10142600E4800B0102040810204080901735E47E0A
:10143600019360BCA3FF543F30E509541FFEE493BB
:10144600A360010ECF54C025E060A840B8E493A382
:10145600FAE493A3F8E493A3C8C582C8CAC583CAAD
:10146600F0A3C8C582C8CAC583CADFE9DEE780BE65
:01176900007F
:00000001FF
